{
  "contractName": "WhatAreTheOdds",
  "abi": [
    {
      "anonymous": false,
      "inputs": [
        {
          "indexed": false,
          "internalType": "string",
          "name": "message",
          "type": "string"
        },
        {
          "indexed": false,
          "internalType": "uint256",
          "name": "guess",
          "type": "uint256"
        }
      ],
      "name": "Log",
      "type": "event"
    },
    {
      "constant": true,
      "inputs": [
        {
          "internalType": "uint256",
          "name": "",
          "type": "uint256"
        }
      ],
      "name": "GuessedOddsPlayer1",
      "outputs": [
        {
          "internalType": "uint256",
          "name": "data",
          "type": "uint256"
        }
      ],
      "payable": false,
      "stateMutability": "view",
      "type": "function"
    },
    {
      "constant": true,
      "inputs": [
        {
          "internalType": "uint256",
          "name": "",
          "type": "uint256"
        }
      ],
      "name": "GuessedOddsPlayer2",
      "outputs": [
        {
          "internalType": "uint256",
          "name": "data",
          "type": "uint256"
        }
      ],
      "payable": false,
      "stateMutability": "view",
      "type": "function"
    },
    {
      "constant": true,
      "inputs": [],
      "name": "guessOne",
      "outputs": [
        {
          "internalType": "uint256",
          "name": "",
          "type": "uint256"
        }
      ],
      "payable": false,
      "stateMutability": "view",
      "type": "function"
    },
    {
      "constant": true,
      "inputs": [],
      "name": "guessTwo",
      "outputs": [
        {
          "internalType": "uint256",
          "name": "",
          "type": "uint256"
        }
      ],
      "payable": false,
      "stateMutability": "view",
      "type": "function"
    },
    {
      "constant": true,
      "inputs": [],
      "name": "odds",
      "outputs": [
        {
          "internalType": "uint256",
          "name": "",
          "type": "uint256"
        }
      ],
      "payable": false,
      "stateMutability": "view",
      "type": "function"
    },
    {
      "constant": true,
      "inputs": [],
      "name": "winner",
      "outputs": [
        {
          "internalType": "uint256",
          "name": "",
          "type": "uint256"
        }
      ],
      "payable": false,
      "stateMutability": "view",
      "type": "function"
    },
    {
      "constant": true,
      "inputs": [],
      "name": "winsPlayerOne",
      "outputs": [
        {
          "internalType": "uint256",
          "name": "",
          "type": "uint256"
        }
      ],
      "payable": false,
      "stateMutability": "view",
      "type": "function"
    },
    {
      "constant": true,
      "inputs": [],
      "name": "winsPlayerTwo",
      "outputs": [
        {
          "internalType": "uint256",
          "name": "",
          "type": "uint256"
        }
      ],
      "payable": false,
      "stateMutability": "view",
      "type": "function"
    },
    {
      "constant": false,
      "inputs": [
        {
          "internalType": "uint256",
          "name": "GiveOdds",
          "type": "uint256"
        }
      ],
      "name": "GiveTheOddsPlayerOne",
      "outputs": [],
      "payable": false,
      "stateMutability": "nonpayable",
      "type": "function"
    },
    {
      "constant": false,
      "inputs": [
        {
          "internalType": "uint256",
          "name": "FirstOdds",
          "type": "uint256"
        }
      ],
      "name": "GuessNumberOne",
      "outputs": [],
      "payable": false,
      "stateMutability": "nonpayable",
      "type": "function"
    },
    {
      "constant": false,
      "inputs": [
        {
          "internalType": "uint256",
          "name": "SecondOdds",
          "type": "uint256"
        }
      ],
      "name": "GuessNumberTwo",
      "outputs": [
        {
          "internalType": "uint256",
          "name": "",
          "type": "uint256"
        }
      ],
      "payable": false,
      "stateMutability": "nonpayable",
      "type": "function"
    },
    {
      "constant": true,
      "inputs": [],
      "name": "List1Length",
      "outputs": [
        {
          "internalType": "uint256",
          "name": "",
          "type": "uint256"
        }
      ],
      "payable": false,
      "stateMutability": "view",
      "type": "function"
    },
    {
      "constant": true,
      "inputs": [],
      "name": "List2Length",
      "outputs": [
        {
          "internalType": "uint256",
          "name": "",
          "type": "uint256"
        }
      ],
      "payable": false,
      "stateMutability": "view",
      "type": "function"
    }
  ],
  "bytecode": "0x608060405234801561001057600080fd5b50610ae7806100206000396000f3fe608060405234801561001057600080fd5b50600436106100cf5760003560e01c80638b96676c1161008c578063ae27449111610066578063ae2744911461024e578063af8e55251461027c578063dfbf53ae1461029a578063e9ee57d7146102b8576100cf565b80638b96676c146101d05780638d7f40d0146101ee578063a92fb74b14610230576100cf565b8063233de126146100d457806324d0f760146100f257806339d85533146101345780633a07c40d1461015257806368dd21af146101705780637db9943f1461018e575b600080fd5b6100dc6102e6565b6040518082815260200191505060405180910390f35b61011e6004803603602081101561010857600080fd5b81019080803590602001909291905050506102ec565b6040518082815260200191505060405180910390f35b61013c610667565b6040518082815260200191505060405180910390f35b61015a61066d565b6040518082815260200191505060405180910390f35b61017861067a565b6040518082815260200191505060405180910390f35b6101ba600480360360208110156101a457600080fd5b8101908080359060200190929190505050610680565b6040518082815260200191505060405180910390f35b6101d86106a7565b6040518082815260200191505060405180910390f35b61021a6004803603602081101561020457600080fd5b81019080803590602001909291905050506106b4565b6040518082815260200191505060405180910390f35b6102386106db565b6040518082815260200191505060405180910390f35b61027a6004803603602081101561026457600080fd5b81019080803590602001909291905050506106e1565b005b610284610927565b6040518082815260200191505060405180910390f35b6102a261092d565b6040518082815260200191505060405180910390f35b6102e4600480360360208110156102ce57600080fd5b8101908080359060200190929190505050610933565b005b60005481565b6000806102f761066d565b905060006103036106a7565b905060018101821461037d576040517f08c379a000000000000000000000000000000000000000000000000000000000815260040180806020018281038252600d8152602001807f4e6f7420796f7572207475726e0000000000000000000000000000000000000081525060200191505060405180910390fd5b8360028190555060008054116103fb576040517f08c379a000000000000000000000000000000000000000000000000000000000815260040180806020018281038252600d8152602001807f4e6f206f64647320676976656e0000000000000000000000000000000000000081525060200191505060405180910390fd5b6000546002541115610475576040517f08c379a000000000000000000000000000000000000000000000000000000000815260040180806020018281038252601c8152602001807f48617320746f206265206c6f776572207468616e20746865206f64640000000081525060200191505060405180910390fd5b61047d610a9f565b84816000018181525050600781908060018154018082558091505090600182039060005260206000200160009091929091909150600082015181600001555050507fdd970dd9b5bfe707922155b058a407655cb18288b807e2216442bca8ad83d6b56002546040518080602001838152602001828103825260148152602001807f506c617965722074776f20677565737365643a200000000000000000000000008152506020019250505060405180910390a160015460025414156105cd5760016003819055506004600081548092919060010191905055507fdd970dd9b5bfe707922155b058a407655cb18288b807e2216442bca8ad83d6b560035460405180806020018381526020018281038252600f8152602001807f576f6e20627920706c617965723a2000000000000000000000000000000000008152506020019250505060405180910390a161065a565b60026003819055506005600081548092919060010191905055507fdd970dd9b5bfe707922155b058a407655cb18288b807e2216442bca8ad83d6b560035460405180806020018381526020018281038252600f8152602001807f576f6e20627920706c617965723a2000000000000000000000000000000000008152506020019250505060405180910390a15b6003549350505050919050565b60045481565b6000600680549050905090565b60015481565b6007818154811061068d57fe5b906000526020600020016000915090508060000154905081565b6000600780549050905090565b600681815481106106c157fe5b906000526020600020016000915090508060000154905081565b60025481565b60006106eb61066d565b905060006106f76106a7565b905080821461076e576040517f08c379a000000000000000000000000000000000000000000000000000000000815260040180806020018281038252600d8152602001807f4e6f7420796f7572207475726e0000000000000000000000000000000000000081525060200191505060405180910390fd5b8260018190555060008054116107ec576040517f08c379a000000000000000000000000000000000000000000000000000000000815260040180806020018281038252600d8152602001807f4e6f206f64647320676976656e0000000000000000000000000000000000000081525060200191505060405180910390fd5b6000546001541115610866576040517f08c379a000000000000000000000000000000000000000000000000000000000815260040180806020018281038252601c8152602001807f48617320746f206265206c6f776572207468616e20746865206f64640000000081525060200191505060405180910390fd5b61086e610a9f565b83816000018181525050600681908060018154018082558091505090600182039060005260206000200160009091929091909150600082015181600001555050507fdd970dd9b5bfe707922155b058a407655cb18288b807e2216442bca8ad83d6b56001546040518080602001838152602001828103825260148152602001807f506c61796572206f6e6520677565737365643a200000000000000000000000008152506020019250505060405180910390a150505050565b60055481565b60035481565b80600081905550600b600054106109b2576040517f08c379a000000000000000000000000000000000000000000000000000000000815260040180806020018281038252600d8152602001807f4f64647320746f6f20686967680000000000000000000000000000000000000081525060200191505060405180910390fd5b600160005411610a2a576040517f08c379a00000000000000000000000000000000000000000000000000000000081526004018080602001828103825260178152602001807f6f646473206861766520746f2062652061626f7665203200000000000000000081525060200191505060405180910390fd5b7fdd970dd9b5bfe707922155b058a407655cb18288b807e2216442bca8ad83d6b560005460405180806020018381526020018281038252600c8152602001807f546865206f6464732061726500000000000000000000000000000000000000008152506020019250505060405180910390a150565b604051806020016040528060008152509056fea265627a7a723158201241c781219b12d81918730c29aaae88b653d84af53a860aa33da52bbf4144d164736f6c634300050c0032",
  "source": "pragma solidity >=0.5.0 <0.7.0;\r\n\r\ncontract WhatAreTheOdds {\r\n\r\n    event Log(string message, uint guess);   // declaring event  \r\n  \tuint public odds;\r\n\tuint public guessOne;\r\n  \tuint public guessTwo;\r\n  \tuint public winner;\r\n  \tuint public winsPlayerOne;\r\n  \tuint public winsPlayerTwo;\r\n  \t\r\n    struct member {\r\n        uint data;\r\n    }\r\n    \r\n    member[] public GuessedOddsPlayer1;\r\n    member[] public GuessedOddsPlayer2;\r\n  \r\n    function GiveTheOddsPlayerOne(uint GiveOdds) public  { \r\n        odds=GiveOdds;\r\n        require(odds < 11, \"Odds too high\");\r\n        require(odds > 1, \"odds have to be above 2\");\r\n        emit Log(\"The odds are\", odds);\r\n    }\r\n  \t\r\n  \tfunction GuessNumberOne(uint FirstOdds) public {\r\n  \t    uint list1 = List1Length();\r\n        uint list2 = List2Length();\r\n        require(list1 == list2, \"Not your turn\");\r\n       \tguessOne =FirstOdds;\r\n      \trequire(odds > 0, \"No odds given\");\r\n      \trequire(guessOne <= odds,\"Has to be lower than the odd\");\r\n        member memory temp;\r\n        temp.data=FirstOdds;\r\n        GuessedOddsPlayer1.push(temp);\r\n\r\n      \temit Log(\"Player one guessed: \", guessOne);\r\n    }\r\n    \r\n    function GuessNumberTwo(uint SecondOdds) public returns(uint) {\r\n        uint list1 = List1Length();\r\n        uint list2 = List2Length();\r\n        require(list1 == list2 + 1, \"Not your turn\");\r\n        guessTwo =SecondOdds;\r\n        require(odds > 0, \"No odds given\");\r\n      \trequire(guessTwo <= odds,\"Has to be lower than the odd\");\r\n      \tmember memory temp;\r\n        temp.data=SecondOdds;\r\n        GuessedOddsPlayer2.push(temp);\r\n      \temit Log(\"Player two guessed: \", guessTwo);\r\n      \t\r\n      \tif(guessTwo == guessOne){\r\n      \t    winner = 1;\r\n            winsPlayerOne++;\r\n            emit Log(\"Won by player: \", winner);\r\n        }\r\n      \telse{\r\n            winner = 2;\r\n            winsPlayerTwo++;\r\n            emit Log(\"Won by player: \", winner);\r\n        }\r\n        return winner;\r\n    }\r\n    \r\n    function List1Length() public view returns(uint) {\r\n      return GuessedOddsPlayer1.length;\r\n    }\r\n    \r\n    function List2Length() public view returns(uint) {\r\n      return GuessedOddsPlayer2.length;\r\n    }\r\n  \r\n}",
  "sourcePath": "C:/Users/wille/Documents/jaar 3/periode 2/programmeren/npp/10-01 maar opdracht 09-12/contracts/WhatAreTheOdds.sol",
  "compiler": {
    "name": "solc",
    "version": "0.5.12+commit.7709ece9.Emscripten.clang"
  },
  "schemaVersion": "3.0.20",
  "updatedAt": "2020-01-12T14:36:15.478Z",
  "networkType": "ethereum",
  "devdoc": {
    "methods": {}
  },
  "userdoc": {
    "methods": {}
  }
}